:100000000C943A000C9457000C9457000C94570031
:100010000C948A000C94AB020C9457000C9457007B
:100020000C9457000C9457000C9457000C94A300A8
:100030000C9457000C9457000C94C2000C94570079
:100040000C9457000C9457000C9485030C945700A3
:100050000C9457000C9457000C9457000C945700C4
:100060000C9457000C9457006364696E6F7073753D
:1000700078585B0011241FBECFEFD8E0DEBFCDBFA4
:1000800011E0A0E0B1E0E6E4FAE102C005900D92D3
:10009000AA38B107D9F721E0AAE8B1E001C01D9262
:1000A000AA3AB207E1F70E9419040C94210D0C94AE
:1000B0000000E0EBF0E080818360808380818068D5
:1000C000808387E18093B300E1EBF0E0808187607B
:1000D000808308959C01E1E8F0E09081986090832E
:1000E000AFE6B0E09C9192609C933093890020939E
:1000F000880080818460808380818B7F80830895E5
:1001000094B5926094BDEEE6F0E0908192609083A9
:1001100087BD08951F920F920FB60F9211248F93EF
:100120009F9386B1982F92709093980184708093DA
:100130009B0181E080938E019F918F910F900FBE64
:100140000F901F9018951F920F920FB60F921124C7
:100150008F9380918D0181110DC081E080938D017D
:100160002C9A81E080938C018F910F900FBE0F909D
:100170001F90189580918D01813099F710928D0113
:100180002C98EFCF1F920F920FB60F9211248F93DE
:100190009F938091000190910101892BA1F08091A2
:1001A000000190910101019790930101809300015A
:1001B00088B190E2892788B99F918F910F900FBEE7
:1001C0000F901F901895459885B58B7F85BD8BE066
:1001D00092E09093010180930001EECF9BB19F705C
:1001E0009BB99BB1807F892B8BB9299A299A299831
:1001F0000895CF93C82F28980E94EE008C2F8295E7
:10020000807F0E94EE008FE39FE10197F1F700C02D
:100210000000CF910895811104C080E8860F0C94EE
:10022000F90080ECFBCF8AB1806F8AB984B183601A
:1002300084B98FE59AEE0197F1F700C0000080E3E2
:100240000E94EE008FE19EE40197F1F700C00000EC
:1002500080E30E94EE008FED91E00197F1F700C07E
:10026000000080E30E94EE0080E20E94EE008FE337
:100270009FE10197F1F700C0000088E20E94F900B9
:100280008FE00C94F900CF93C82F289A0E94EE00BB
:100290008C2F8295807F0E94EE008FE39FE1019773
:1002A000F1F700C00000CF910895CF93DF93EC01E8
:1002B0008991811103C0DF91CF9108950E9443017C
:1002C000F7CF3B9A8FE599E00197F1F700C0000066
:1002D0003B988BE091E00197F1F700C00000339963
:1002E0000AC0339BFECF87EC90E00197F1F700C086
:1002F000000081E0089580E008953B9A8AE08A95A5
:10030000F1F700C03B988FEE90E00197F1F700C045
:10031000000008953B9A8FEE90E00197F1F700C03E
:1003200000003B989AE09A95F1F700C00895CF93AA
:10033000DF93D82FC8E0D0FF08C00E947D01D6957A
:10034000C150C9F7DF91CF9108950E948A01F7CF7C
:100350000E946101882331F08CEC0E94970184E4B3
:100360000C94970108953B9A8AE08A95F1F700C0B2
:100370003B98E5E3EA95F1F7000086B1E7ECF0E0A1
:100380003197F1F700C0000083FB882780F90895BA
:100390001F93CF93DF93D8E011E0C0E00E94B30138
:1003A0008111C12B110FD150C9F78C2FDF91CF9143
:1003B0001F910895EF92FF920F931F93CF93DF93B6
:1003C000CDB7DEB729970FB6F894DEBF0FBECDBF0D
:1003D0003B9843980E94610181110EC080E02996EC
:1003E0000FB6F894DEBF0FBECDBFDF91CF911F9146
:1003F0000F91FF90EF9008958CEC0E9497018EEB87
:100400000E9497018E010F5F1F4F7E012AE0E20ECE
:10041000F11C0E94C801F80181938F01EE15FF05C0
:10042000C1F70E9461018823C9F28CEC0E949701F8
:100430008EE40E9497018B810E9497018C810E941B
:1004400097018FE70E9497018FE891E00197F1F7FC
:1004500000C000000E946101882309F4BFCF8CEC2A
:100460000E94970188E40E9497019FEFE9EFF0E076
:100470009150E040F040E1F700C0000081E0AFCFD4
:10048000CF93DF93EC010E94B301882301F10E9416
:1004900061018823D1F08CEC0E9497018EEB0E94C1
:1004A00097010E94C80188830E94C80189830E9425
:1004B000C8010E94C8010E94C8010E94C8010E9490
:1004C000C8010E94C8010E94C80181E001C080E00B
:1004D000DF91CF9108958BB18C608BB980916800CA
:1004E00084608093680080916D008C6080936D00C3
:1004F00089B1982F94709093A201887080939D0188
:100500001092A1011092A00180919D0181110BC058
:100510008091A201811107C010929E0180919E01DD
:1005200080939F01089580919D01811108C0809161
:10053000A201882321F081E080939E01EFCF80917A
:100540009D01882331F08091A201811102C082E0D7
:10055000F3CF83E0F1CF1F920F920FB60F921124C9
:100560008F939F9389B1982F94709093A201887074
:1005700080939D0180919E01811118C08091A201FC
:10058000882341F080919D01811104C081E0809316
:100590009F0168C08091A20181112AC080919D01B4
:1005A000882331F182E080939F0119C080919E01E0
:1005B000813009F03FC08091A201882331F0809101
:1005C0009D01882311F083E0E2CF8091A201811187
:1005D0000FC080919D0181110BC010929F018091ED
:1005E000A0019091A10101979093A1018093A00196
:1005F0008091A0019091A1018B3591050CF44DC023
:100600008AE590E09093A1018093A00190919F01D1
:1006100080919E01981739F081E080938F0180913D
:100620009F0180939E019F918F910F900FBE0F901D
:100630001F90189580919E018230D1F48091A20183
:10064000882331F080919D01882311F083E0ABCFA6
:100650008091A2018111CCCF80919D018111C8CFE1
:1006600010929F018091A0019091A1010196BCCFB1
:100670008091A201882331F080919D01811102C0F7
:1006800081E091CF8091A2018111B2CF80919D0133
:10069000882309F4ADCF82E07ACF8091A0019091B8
:1006A000A101C2970CF0B2CF82E390E0ABCF3C9AAD
:1006B000449887E690E09093C5008093C400E1ECF5
:1006C000F0E080818861808386E08093C200808131
:1006D0008068808308959091C00095FFFCCF80933F
:1006E000C60008950F931F93CF93DF93EC018C0105
:1006F000095F1F4F89910E946B03C017D107D1F783
:10070000DF91CF911F910F9108951F920F920FB615
:100710000F9211242F933F938F939F93EF93FF9307
:100720008091C6008034D9F49091920191114EC00D
:1007300081E08093920180919001909191010196C6
:100740009093910180939001FF91EF919F918F91F0
:100750003F912F910F900FBE0F901F9018958B32E5
:1007600011F08D3299F590919201913071F42091B0
:100770009001309191012130310539F010929201B0
:100780001092910110929001DFCF8B3211F08D32D7
:10079000E9F4909192019130C9F420919001309147
:1007A00091012130310591F4209190013091910116
:1007B0002F5F3F4F3093910120939001E091900182
:1007C000F0919101EF55FE4F8083BECF9091920141
:1007D000913009F0B9CF90ED980F9A3038F420910C
:1007E00090013091910125303105F4F2833231F6D8
:1007F0008091900190919101049739F0809190013E
:1008000090919101059709F0B9CF80919001909155
:1008100091010196909391018093900181E08093E2
:100820009301E0919001F0919101EF55FE4F1082FC
:100830008BCFCF93DF93CDB7DEB7C655D1090FB6B7
:10084000F894DEBF0FBECDBF0E94590082E19AE747
:100850000E946A008BE390E00E9480000E946B027D
:100860000E945703809168008260809368008091A5
:100870006C00866080936C007894239A249A259A61
:100880003D9A88B1866088B90E94130181E00E9478
:10089000F9008BE0EFE7F1E0DE01AF5BBF4F0190C5
:1008A0000D928A95E1F7CE018F5B9F4F0E94550113
:1008B00063E081E00E940B011F928DE68F9384E03C
:1008C00091E09F938F931F928EE18F938E010F5F24
:1008D0001F4F1F930F930E940E07C8010E945501DE
:1008E0002FEF33ED40E3215030404040E1F700C0AE
:1008F000000081E00E94F90010929C010E94DA0140
:100900000FB6F894DEBF0FBECDBF811108C060E006
:1009100081E00E940B0181E191E00E9455010E945B
:10092000A80142E3242E5AE0A52EB12C9E01245B9F
:100930003F4F79016E0133E5C30ED11C63E5662E8E
:1009400061E0762E8E01015E1F4F71E1372E2E0180
:1009500040E3440E511CCE018B5A9F4F0E9440022F
:10096000882309F4F1C010929A01109299018091A4
:10097000990190919A0167962FAD6797822B90937A
:100980009A01809399018091990190919A01982FF1
:10099000882790939A018093990180919901909171
:1009A0009A0166962FAD6697822B90939A01809359
:1009B00099012091990130919A014AE0429FC0012A
:1009C000439F900D112490939A01809399018091F7
:1009D000990190919A0134E0959587953A95E1F7C0
:1009E00090939A01809399012091990130919A01F5
:1009F00049E0429FC001439F900D112465E070E0E3
:100A00000E94E6067093970160939601809196018B
:100A100090919701B5010E94E60680938B01809129
:100A2000960190919701B5010E94E6067093970197
:100A30006093960180919601909197018096909392
:100A4000970180939601809196019091970197FF6D
:100A500011C180919601909197019F938F9387E2A6
:100A600091E09F938F931F9287E08F93FF92EF9275
:100A70000E940E070FB6F894DEBF0FBECDBFC701B0
:100A80000E9472038091960190919701892B21F128
:100A900080918A0120918B018111FBC08091960188
:100AA000909197011F922F939F938F9383E391E0EF
:100AB0009F938F931F923F921F930F930E940E0755
:100AC0000FB6F894DEBF0FBECDBF60E081E00E949C
:100AD0000B01C8010E94550180919301882391F177
:100AE00010929301DF92CF927F926F9223EA31E0CE
:100AF0003F932F930E943E0720918A010F900F9001
:100B00000F900F900F900F90F6019181808121300E
:100B100009F0CCC09F938F9326E531E03F932F934C
:100B20001F923F921F930F930E940E070FB6F894E7
:100B3000DEBF0FBECDBF60E080E00E940B01C801A8
:100B40000E9455010E94A80180918E01882349F0DE
:100B500010928E0180919B018111AFC081E0809342
:100B60009C0180919C018111CDC080919601909152
:100B70009701892B09F4C6C010928A014091960111
:100B8000509197012CEF2403C001259F900D112453
:100B900087369E4F0CF098C08BE08093B300809115
:100BA0008F01882351F010928F016091A001709104
:100BB000A10188EC90E00E94D80C88EC90E00E94A3
:100BC000D00C823318F08B3508F4282E822C912C0F
:100BD0009092A1018092A0011F922F927F926F921A
:100BE0001F923F925F924F920E940E076EE081E04B
:100BF0000E940B01C2010E9455016CE080E00E943E
:100C00000B01809195018093940120919601309180
:100C10009701C40102960FB6F894DEBF0FBECDBF98
:100C2000821693060CF088C02091960130919701AE
:100C3000821793070CF480C081E080939501809126
:100C40009501823009F090C080919401811180C09B
:100C50002D9880919401813021F08091940181112F
:100C600003C085B5846085BD2C9A80E791E00E9421
:100C7000550171CE809196019091970197FDFFCE1D
:100C800080919601909197019F938F938DE291E0CF
:100C9000E8CE80919601909197011F922F939F9398
:100CA0008F9343E451E05F934F9304CF9F938F93CF
:100CB000E3E6F1E0FF93EF9333CF80919801811148
:100CC00050CF10929C014DCF4091960150919701C9
:100CD0002403C001259F900D112481369F4F14F0ED
:100CE00083E25BCF40919601509197012403C001AC
:100CF000259F900D1124B5010E94E6066D5C60935E
:100D0000B3004DCF80919C01813009F048CF809392
:100D10008A01F601208131814CEF4203C001439FDB
:100D2000900D11248736FEEF9F070CF435CF8136E6
:100D30002FEF920704F3D4CF2091960130919701C1
:100D40008217930714F482E078CF1092950177CF41
:100D500080919401813009F07CCF2C9880918100A2
:100D60008B7F8093810075CF809195018130E1F474
:100D700080919401811112C02D9885E791E00E9425
:100D800055018091810084608093810080918C0165
:100D9000813009F0E0CD10928C01DDCD809194017D
:100DA000823059F72C98E9CF809195018111D3CDEC
:100DB00080919401813031F42C98809181008B7F57
:100DC000809381002D9A8AE791E051CF97FB072EFF
:100DD00016F4009407D077FD09D00E94FA0607FCAC
:100DE00005D03EF4909581959F4F0895709561953B
:100DF0007F4F0895AA1BBB1B51E107C0AA1FBB1F51
:100E0000A617B70710F0A61BB70B881F991F5A9596
:100E1000A9F780959095BC01CD010895AEE0B0E0B2
:100E2000E4E1F7E00C94F80C0D891E898F89988D08
:100E300026E02C831A83098397FF02C080E090E8A4
:100E400001979E838D83AE01455E5F4F698D7A8DDC
:100E5000CE0101960E9457074D815E8157FD0AC061
:100E60002F813885421753070CF49A01020F131F84
:100E7000F80110822E96E4E00C94140DAEE0B0E080
:100E8000E4E4F7E00C94FA0C85E08C838B899C8970
:100E90009A838983AE01495E5F4F6D897E89CE0159
:100EA00001960E94BC0A2E96E2E00C94160DABE06F
:100EB000B0E0EDE5F7E00C94EA0C7C013B018A011F
:100EC000FC0117821682838181FFC8C1CE01019681
:100ED0005C01F7019381F30193FD859193FF81916B
:100EE0003F01882309F453C1853239F493FD85917C
:100EF00093FF81913F01853229F4B70190E00E9470
:100F0000270CE7CF912C212C312CFFE1F31538F081
:100F10008B3211F190F4803209F1833229F137FCE0
:100F20003CC020ED280F2A3050F536FE20C08AE064
:100F3000989E200D1124922E06C08D3291F08033A0
:100F400071F7689430F8F30193FD859193FF8191D7
:100F50003F018111DACF21C0689431F8689432F8EA
:100F6000F2CF689433F8EFCF689434F8ECCFEAE02E
:100F70002E9E200D1124222E689435F8E4CF8E3257
:100F800029F436FC04C1689436F8DDCF8C3619F4A8
:100F9000689437F8D8CF8836B1F2982F9F7D955452
:100FA0009330E0F08336A1F18337C1F1833509F046
:100FB00063C02801F2E04F0E511CF801C080D180BF
:100FC000692D70E036FC02C06FEF7FEFC6010E9412
:100FD000D50B4C01689437F882010AC00C5F1F4F93
:100FE000FFE3F98388248394912C6501E89437F812
:100FF00033FE2DC0522C8114910471F5552009F453
:1010000068CFB70180E290E00E94270C5A94F6CF97
:10101000F801808189830E5F1F4FE4CF2801F2E041
:101020004F0E511CF801C080D180692D70E036FC54
:1010300002C06FEF7FEFC6010E94E00B4C018201FE
:10104000D5CFB70180E290E00E94270C2A942814A3
:10105000190409F0B0F7CECFF60137FC859137FEC1
:1010600081916F01B70190E00E94270C51105A94B2
:10107000F1E08F1A9108BFCF843619F0893609F054
:1010800077C0F80137FE6BC06081718182819381E6
:101090000C5F1F4FF32DFF763F2E97FF09C09095F1
:1010A0008095709561957F4F8F4F9F4F689437F86B
:1010B0002AE030E0A5010E946F0CC82ECA188C2CC3
:1010C000432C36FE0CC0E89440F8C91440F434FEBA
:1010D00005C032FC03C0F32DFE7E4F2E892C44FE4A
:1010E00095C0FE01EC0DF11D8081803309F087C0B1
:1010F000242D297E422E842D8870582E43FC95C0C5
:1011000040FE8FC09C2C821418F42C0C922C981842
:1011100044FE91C0B70180E390E00E94270C42FE9C
:1011200009C088E790E041FE02C088E590E0B70181
:101130000E94270CC91408F48AC0CA94D12C9FEFCE
:10114000C91AD90ACA0CDB1CF60182916F01B701DA
:1011500090E00E94270CAC14BD04B1F74FCF608122
:101160007181072E000C880B990B0E5F1F4F92CFD9
:10117000D32CE894D4F82AE030E0853739F1232DD8
:10118000297FD22E8F3601F148F48835A9F0F70176
:10119000868197812B96E2E10C94060D803749F009
:1011A0008837A9F7D4FE02C06894D2F820E130E075
:1011B0000DC06894D4F8F6CF34FE03C0822F866049
:1011C000D82E20E132E002C028E030E0F801D7FE5E
:1011D0000FC060817181828193810C5F1F4FA501D7
:1011E0000E946F0CC82ECA183D2CE89437F867CFC0
:1011F0006081718190E080E00E5F1F4FF0CF42FC74
:1012000002C0839478CF8394839475CF842D86789D
:1012100009F471CFF6CFB70180E290E00E94270C6D
:1012200083948214C0F3512C73CF522C581882141B
:1012300008F46ECFF8CF842D867809F47BCF8BE24B
:1012400041FE80E247FC8DE2B70190E071CFB7012B
:1012500080E390E00E94270C9A946CCF8FEF9FEF71
:1012600099CF20FD09C0FC0123FD05C022FF02C06B
:101270007383628351834083089544FD17C046FD04
:101280001DC0DB01FC01AA0FBB1FEE1FFF1F109446
:10129000D1F76A0F7B1F8E1F9F1F660F771F881F56
:1012A000991F620F711D811D911D089533E0660F16
:1012B000771F881F991F3150D1F7F3CF34E0F7CF54
:1012C0000F931F93CF93DF938C01C8010E94EB0B08
:1012D000EC0197FD08C00E94C10B892BB1F7B80142
:1012E000CE010E94570CCE01DF91CF911F910F913B
:1012F00008958F929F92AF92BF92EF92FF920F93B9
:101300001F93CF93DF938C01D62F7A01B22E0E94C8
:10131000EB0B9C0133272B32310529F02D3231059F
:10132000A9F46894B7F8D15061F480E0DF91CF91CF
:101330001F910F91FF90EF90BF90AF909F908F9073
:101340000895C8010E94EB0B97FDEFCFCB2DCD7F09
:101350002B2D2073F9F48033E9F4AA24AA94AD0E5E
:1013600089F0C8010E94EB0B97FD0CC0282F2F7D40
:10137000283561F4C264D25029F0C8010E94EB0BF9
:1013800097FF08C0812C912C54011BC0B6FE2BC0C6
:10139000C260DA2D812C912C540120ED280F2830C9
:1013A00028F1C4FD09C02A3008F1C6FF05C02F7D11
:1013B0003FEE320F3630C8F0B8010E94570CC1FF23
:1013C000B4CFC7FF08C0B094A09490948094811CBF
:1013D000911CA11CB11C2C2FB501A401C7010E94B6
:1013E000310981E0A3CFC261D4CF27504C2FC50172
:1013F000B4010E943D094B015C01C260D15009F368
:10140000C8010E94EB0B97FFC8CFD9CFA0E2B0E094
:10141000ECE0FAE00C94EF0C5C01962E7A01CE0120
:1014200001966C0180E2F60111928A95E9F7F501C7
:10143000B381890130E020E0712C812CA0E041E0F3
:1014400050E0F801B3FD8591B3FF8191982F8F0192
:10145000811107C010E000E0C801A096EDE00C94F7
:101460000B0D8E3519F42115310541F1A217130624
:101470004CF48D3549F18D3229F4811006C0882451
:1014800083941DC0882009F464C0E92FE695E69591
:10149000E695EC0DFD2DF11D892F8770BA0101C075
:1014A000660F8A95EAF78081682B6083791651F080
:1014B000971510F49F5FE9CF9150E7CFA1E02F5F20
:1014C0003F4FBFCF812CFBCF882019F08E818062E7
:1014D0008E83AA2359F0F6019E012F5D3F4F808134
:1014E000809580833196E217F307C9F788248394A7
:1014F000C5010E94EB0B97FD16C0E82FE695E69517
:10150000E695EC0DFD2DF11D208130E0AC0147701A
:10151000552702C0359527954A95E2F720FD06C06C
:10152000B5010E94570C882069F094CFE114F104B2
:1015300029F0F7018083C70101967C019A94812CE0
:101540009110D6CFE114F10409F486CFF70110828F
:1015500083CFE82FE695E695E695EC0DFD2DF11D80
:10156000982F9770BA0101C0660F9A95EAF790819B
:10157000692B6083782EA3CFB0E0A0E0E2ECFAE024
:101580000C94ED0C6C01EB015A01FC0117821682E0
:10159000512CF601E380FE01E3FC8591E3FE81918D
:1015A000182FEF018823E9F090E00E94C10B892BEE
:1015B00021F0C6010E946009ECCF153241F4FE0112
:1015C000E3FC1591E3FE1191EF01153269F4C601B8
:1015D0000E94EB0B97FD8EC01817D9F2B6010E943E
:1015E000570C852D90E08AC000E01A3231F4E3FCFC
:1015F0001591E3FE1191EF0101E0F12C20ED210F97
:101600002A3048F101FF37C0FF2059F31836B1F1F5
:101610001C3609F43DC0112321F3612F70E088E6E8
:1016200090E00E94CA0B892BE1F2912C812C00FDE5
:1016300006C0F50180809180C50102965C011E36CE
:1016400079F5F6014681578170E060E0202FC401F2
:101650000E9431099ECF02606F2D70E090E080E023
:1016600040E20E943D09F62EFE01E3FC1591E3FEE7
:101670001191EF01C3CFFF24FA94C8CFFE01E3FC20
:101680001591E3FE1191EF01183609F0C4CF0860FF
:101690000460FE01E3FC1591E3FE1191EF01BBCF65
:1016A0001336C1F401FD02C0FF24F394C6010E9469
:1016B000EB0B97FD1FC08114910429F0F401808386
:1016C000C40101964C01FA94F110F0CF00FD61CFF6
:1016D00053945FCF1B35B9F49E01A4016F2DC60151
:1016E0000E94060AEC01892B89F7F6018381807339
:1016F00009F477CF8FEF9FEF511073CFCDB7DEB7DF
:10170000EFE00C94090DC6010E94600997FDF2CF2D
:101710001F36A9F130F4143641F0193639F000645F
:1017200005C01337B9F01537D1F70062202FA40197
:101730006F2DC6010E9479098111C8CFD6CF8114BF
:10174000910429F0F4016082C40101964C01FA94DD
:10175000FF2071F0C6010E94EB0B3C0197FD08C011
:101760000E94C10B892B59F3B601C3010E94570C8B
:101770008114910409F4AACFF4011082A7CF00616B
:10178000D5CF91110C94CD0C803219F08950855031
:10179000C8F70895FC010590061621F00020D9F73E
:1017A000C00108953197CF010895FC010590615063
:1017B00070400110D8F7809590958E0F9F1F089567
:1017C000FC016150704001900110D8F78095909510
:1017D0008E0F9F1F0895CF93DF93EC012B8120FF85
:1017E0001AC026FF0CC02F7B2B838E819F81019610
:1017F0009F838E838A8190E0DF91CF91089522FFAD
:1018000018C0E881F9818081082E000C990B00979F
:1018100029F420622B838FEF9FEFEECF3196F9836F
:10182000E8832E813F812F5F3F4F3F832E8399278F
:10183000E3CFEA85FB85099597FFF3CF2B810196CE
:1018400021F080E2822B8B83E6CF80E1FBCF0F93E8
:101850001F93CF93DF93182F092FEB018B8181FD0D
:1018600009C01FEF0FEF812F902FDF91CF911F91B4
:101870000F91089582FF14C02E813F818C819D813C
:10188000281739073CF4E881F981CF010196998343
:10189000888310838E819F8101969F838E83E3CFFF
:1018A000E885F985812F0995892BA1F3DACFFB0112
:1018B000238120FF11C026FD0FC08F3F980771F0D4
:1018C00082832F7D20642383268137812150310933
:1018D00037832683992708958FEF9FEF0895FA01A4
:1018E000AA27283051F1203181F1E8946F936E7F5F
:1018F0006E5F7F4F8F4F9F4FAF4FB1E03ED0B4E050
:101900003CD0670F781F891F9A1FA11D680F791F90
:101910008A1F911DA11D6A0F711D811D911DA11DA1
:1019200020D009F468943F912AE0269F11243019B1
:10193000305D3193DEF6CF010895462F4770405D4C
:101940004193B3E00FD0C9F7F6CF462F4F70405DFB
:101950004A3318F0495D31FD4052419302D0A9F756
:10196000EACFB4E0A6959795879577956795BA9550
:10197000C9F700976105710508959B01AC010A2E16
:1019800006945795479537952795BA95C9F7620FED
:10199000731F841F951FA01D0895992788270895F8
:1019A000F999FECF92BD81BDF89A992780B5089527
:1019B000262FF999FECF92BD81BDF89A019700B408
:1019C000021639F01FBA20BD0FB6F894FA9AF99AA8
:1019D0000FBE08952F923F924F925F926F927F9227
:1019E0008F929F92AF92BF92CF92DF92EF92FF922F
:1019F0000F931F93CF93DF93CDB7DEB7CA1BDB0BDB
:101A00000FB6F894DEBF0FBECDBF09942A8839887F
:101A100048885F846E847D848C849B84AA84B98486
:101A2000C884DF80EE80FD800C811B81AA81B98192
:101A3000CE0FD11D0FB6F894DEBF0FBECDBFED01A6
:061A40000895F894FFCFA9
:101A46000B021700454525642050726F6A65637462
:101A56000053656E736F72206E6F742072657370BB
:101A66006F6E64696E6700402D25642300402B2548
:101A76006423003E4C6F63616C3A2025642E256416
:101A8600202000204C6F63616C3A2025642E25646B
:101A96002020002564003E52656D6F74653A20254E
:101AA6006420002052656D6F74653A20256420001D
:101AB60020484F54005741524D0020204F4B004EB6
:0A1AC600656D7369737320536800A7
:00000001FF
